{
  "contractName": "SupplyChain",
  "abi": [
    {
      "anonymous": false,
      "inputs": [
        {
          "indexed": true,
          "internalType": "address",
          "name": "account",
          "type": "address"
        }
      ],
      "name": "ConsumerAdded",
      "type": "event"
    },
    {
      "anonymous": false,
      "inputs": [
        {
          "indexed": true,
          "internalType": "address",
          "name": "account",
          "type": "address"
        }
      ],
      "name": "ConsumerRemoved",
      "type": "event"
    },
    {
      "anonymous": false,
      "inputs": [
        {
          "indexed": true,
          "internalType": "address",
          "name": "account",
          "type": "address"
        }
      ],
      "name": "ConsumerReported",
      "type": "event"
    },
    {
      "anonymous": false,
      "inputs": [
        {
          "indexed": true,
          "internalType": "address",
          "name": "account",
          "type": "address"
        }
      ],
      "name": "ConsumerUnreported",
      "type": "event"
    },
    {
      "anonymous": false,
      "inputs": [
        {
          "indexed": true,
          "internalType": "address",
          "name": "account",
          "type": "address"
        }
      ],
      "name": "DistributorAdded",
      "type": "event"
    },
    {
      "anonymous": false,
      "inputs": [
        {
          "indexed": true,
          "internalType": "address",
          "name": "account",
          "type": "address"
        }
      ],
      "name": "DistributorRemoved",
      "type": "event"
    },
    {
      "anonymous": false,
      "inputs": [
        {
          "indexed": true,
          "internalType": "address",
          "name": "account",
          "type": "address"
        }
      ],
      "name": "DistributorReported",
      "type": "event"
    },
    {
      "anonymous": false,
      "inputs": [
        {
          "indexed": true,
          "internalType": "address",
          "name": "account",
          "type": "address"
        }
      ],
      "name": "DistributorUnreported",
      "type": "event"
    },
    {
      "anonymous": false,
      "inputs": [
        {
          "indexed": true,
          "internalType": "uint256",
          "name": "uin",
          "type": "uint256"
        },
        {
          "indexed": false,
          "internalType": "uint256",
          "name": "timeStamp",
          "type": "uint256"
        },
        {
          "indexed": true,
          "internalType": "address",
          "name": "caller",
          "type": "address"
        },
        {
          "indexed": false,
          "internalType": "uint256",
          "name": "price",
          "type": "uint256"
        }
      ],
      "name": "ECollectibleForSaleByCustomer",
      "type": "event"
    },
    {
      "anonymous": false,
      "inputs": [
        {
          "indexed": true,
          "internalType": "uint256",
          "name": "uin",
          "type": "uint256"
        },
        {
          "indexed": false,
          "internalType": "uint256",
          "name": "timeStamp",
          "type": "uint256"
        },
        {
          "indexed": true,
          "internalType": "address",
          "name": "caller",
          "type": "address"
        },
        {
          "indexed": false,
          "internalType": "uint256",
          "name": "price",
          "type": "uint256"
        }
      ],
      "name": "EForSaleByDistributor",
      "type": "event"
    },
    {
      "anonymous": false,
      "inputs": [
        {
          "indexed": true,
          "internalType": "uint256",
          "name": "uin",
          "type": "uint256"
        },
        {
          "indexed": false,
          "internalType": "uint256",
          "name": "timeStamp",
          "type": "uint256"
        },
        {
          "indexed": true,
          "internalType": "address",
          "name": "caller",
          "type": "address"
        },
        {
          "indexed": false,
          "internalType": "uint256",
          "name": "price",
          "type": "uint256"
        }
      ],
      "name": "EForSaleByManufacturer",
      "type": "event"
    },
    {
      "anonymous": false,
      "inputs": [
        {
          "indexed": true,
          "internalType": "uint256",
          "name": "uin",
          "type": "uint256"
        },
        {
          "indexed": false,
          "internalType": "uint256",
          "name": "timeStamp",
          "type": "uint256"
        },
        {
          "indexed": true,
          "internalType": "address",
          "name": "caller",
          "type": "address"
        },
        {
          "indexed": false,
          "internalType": "uint256",
          "name": "price",
          "type": "uint256"
        }
      ],
      "name": "EForSaleByRetailer",
      "type": "event"
    },
    {
      "anonymous": false,
      "inputs": [
        {
          "indexed": true,
          "internalType": "uint256",
          "name": "uin",
          "type": "uint256"
        },
        {
          "indexed": false,
          "internalType": "uint256",
          "name": "timeStamp",
          "type": "uint256"
        },
        {
          "indexed": true,
          "internalType": "address",
          "name": "caller",
          "type": "address"
        }
      ],
      "name": "EProducedByManufacturer",
      "type": "event"
    },
    {
      "anonymous": false,
      "inputs": [
        {
          "indexed": true,
          "internalType": "uint256",
          "name": "uin",
          "type": "uint256"
        },
        {
          "indexed": false,
          "internalType": "uint256",
          "name": "timeStamp",
          "type": "uint256"
        },
        {
          "indexed": false,
          "internalType": "address",
          "name": "caller",
          "type": "address"
        }
      ],
      "name": "EReceivedByCustomer",
      "type": "event"
    },
    {
      "anonymous": false,
      "inputs": [
        {
          "indexed": true,
          "internalType": "uint256",
          "name": "uin",
          "type": "uint256"
        },
        {
          "indexed": false,
          "internalType": "uint256",
          "name": "timeStamp",
          "type": "uint256"
        },
        {
          "indexed": true,
          "internalType": "address",
          "name": "caller",
          "type": "address"
        }
      ],
      "name": "EReceivedByDistributor",
      "type": "event"
    },
    {
      "anonymous": false,
      "inputs": [
        {
          "indexed": true,
          "internalType": "uint256",
          "name": "uin",
          "type": "uint256"
        },
        {
          "indexed": false,
          "internalType": "uint256",
          "name": "timeStamp",
          "type": "uint256"
        },
        {
          "indexed": false,
          "internalType": "address",
          "name": "caller",
          "type": "address"
        }
      ],
      "name": "EReceivedByRetailer",
      "type": "event"
    },
    {
      "anonymous": false,
      "inputs": [
        {
          "indexed": true,
          "internalType": "uint256",
          "name": "uin",
          "type": "uint256"
        },
        {
          "indexed": false,
          "internalType": "uint256",
          "name": "timeStamp",
          "type": "uint256"
        },
        {
          "indexed": false,
          "internalType": "address",
          "name": "caller",
          "type": "address"
        }
      ],
      "name": "EReceivedCollectibleByCustomer",
      "type": "event"
    },
    {
      "anonymous": false,
      "inputs": [
        {
          "indexed": true,
          "internalType": "uint256",
          "name": "uin",
          "type": "uint256"
        },
        {
          "indexed": false,
          "internalType": "uint256",
          "name": "timeStamp",
          "type": "uint256"
        },
        {
          "indexed": true,
          "internalType": "address",
          "name": "caller",
          "type": "address"
        },
        {
          "indexed": true,
          "internalType": "address",
          "name": "receiver",
          "type": "address"
        }
      ],
      "name": "EShippedByDistributor",
      "type": "event"
    },
    {
      "anonymous": false,
      "inputs": [
        {
          "indexed": true,
          "internalType": "uint256",
          "name": "uin",
          "type": "uint256"
        },
        {
          "indexed": false,
          "internalType": "uint256",
          "name": "timeStamp",
          "type": "uint256"
        },
        {
          "indexed": true,
          "internalType": "address",
          "name": "caller",
          "type": "address"
        },
        {
          "indexed": true,
          "internalType": "address",
          "name": "receiver",
          "type": "address"
        }
      ],
      "name": "EShippedByManufacturer",
      "type": "event"
    },
    {
      "anonymous": false,
      "inputs": [
        {
          "indexed": true,
          "internalType": "uint256",
          "name": "uin",
          "type": "uint256"
        },
        {
          "indexed": false,
          "internalType": "uint256",
          "name": "timeStamp",
          "type": "uint256"
        },
        {
          "indexed": true,
          "internalType": "address",
          "name": "caller",
          "type": "address"
        },
        {
          "indexed": true,
          "internalType": "address",
          "name": "receiver",
          "type": "address"
        }
      ],
      "name": "EShippedByRetailer",
      "type": "event"
    },
    {
      "anonymous": false,
      "inputs": [
        {
          "indexed": true,
          "internalType": "uint256",
          "name": "uin",
          "type": "uint256"
        },
        {
          "indexed": false,
          "internalType": "uint256",
          "name": "timeStamp",
          "type": "uint256"
        },
        {
          "indexed": true,
          "internalType": "address",
          "name": "caller",
          "type": "address"
        },
        {
          "indexed": true,
          "internalType": "address",
          "name": "receiver",
          "type": "address"
        }
      ],
      "name": "EShippedtheCollectibleByCustomer",
      "type": "event"
    },
    {
      "anonymous": false,
      "inputs": [
        {
          "indexed": true,
          "internalType": "address",
          "name": "account",
          "type": "address"
        }
      ],
      "name": "ManufacturerAdded",
      "type": "event"
    },
    {
      "anonymous": false,
      "inputs": [
        {
          "indexed": true,
          "internalType": "address",
          "name": "account",
          "type": "address"
        }
      ],
      "name": "ManufacturerRemoved",
      "type": "event"
    },
    {
      "anonymous": false,
      "inputs": [
        {
          "indexed": true,
          "internalType": "address",
          "name": "account",
          "type": "address"
        }
      ],
      "name": "ManufacturerReported",
      "type": "event"
    },
    {
      "anonymous": false,
      "inputs": [
        {
          "indexed": true,
          "internalType": "address",
          "name": "account",
          "type": "address"
        }
      ],
      "name": "ManufacturerUnreported",
      "type": "event"
    },
    {
      "anonymous": false,
      "inputs": [
        {
          "indexed": true,
          "internalType": "address",
          "name": "account",
          "type": "address"
        }
      ],
      "name": "RetailerAdded",
      "type": "event"
    },
    {
      "anonymous": false,
      "inputs": [
        {
          "indexed": true,
          "internalType": "address",
          "name": "account",
          "type": "address"
        }
      ],
      "name": "RetailerRemoved",
      "type": "event"
    },
    {
      "anonymous": false,
      "inputs": [
        {
          "indexed": true,
          "internalType": "address",
          "name": "account",
          "type": "address"
        }
      ],
      "name": "RetailerReported",
      "type": "event"
    },
    {
      "anonymous": false,
      "inputs": [
        {
          "indexed": true,
          "internalType": "address",
          "name": "account",
          "type": "address"
        }
      ],
      "name": "RetailerUnreported",
      "type": "event"
    },
    {
      "inputs": [
        {
          "internalType": "address",
          "name": "account",
          "type": "address"
        }
      ],
      "name": "addConsumer",
      "outputs": [],
      "stateMutability": "nonpayable",
      "type": "function"
    },
    {
      "inputs": [
        {
          "internalType": "address",
          "name": "account",
          "type": "address"
        }
      ],
      "name": "addDistributor",
      "outputs": [],
      "stateMutability": "nonpayable",
      "type": "function"
    },
    {
      "inputs": [
        {
          "internalType": "address",
          "name": "account",
          "type": "address"
        }
      ],
      "name": "addManufacturer",
      "outputs": [],
      "stateMutability": "nonpayable",
      "type": "function"
    },
    {
      "inputs": [
        {
          "internalType": "address",
          "name": "account",
          "type": "address"
        }
      ],
      "name": "addRetailer",
      "outputs": [],
      "stateMutability": "nonpayable",
      "type": "function"
    },
    {
      "inputs": [
        {
          "internalType": "address",
          "name": "account",
          "type": "address"
        }
      ],
      "name": "isConsumer",
      "outputs": [
        {
          "internalType": "bool",
          "name": "",
          "type": "bool"
        }
      ],
      "stateMutability": "view",
      "type": "function",
      "constant": true
    },
    {
      "inputs": [
        {
          "internalType": "address",
          "name": "account",
          "type": "address"
        }
      ],
      "name": "isDistributor",
      "outputs": [
        {
          "internalType": "bool",
          "name": "",
          "type": "bool"
        }
      ],
      "stateMutability": "view",
      "type": "function",
      "constant": true
    },
    {
      "inputs": [
        {
          "internalType": "address",
          "name": "account",
          "type": "address"
        }
      ],
      "name": "isManufacturer",
      "outputs": [
        {
          "internalType": "bool",
          "name": "",
          "type": "bool"
        }
      ],
      "stateMutability": "view",
      "type": "function",
      "constant": true
    },
    {
      "inputs": [
        {
          "internalType": "address",
          "name": "account",
          "type": "address"
        }
      ],
      "name": "isRetailer",
      "outputs": [
        {
          "internalType": "bool",
          "name": "",
          "type": "bool"
        }
      ],
      "stateMutability": "view",
      "type": "function",
      "constant": true
    },
    {
      "inputs": [
        {
          "internalType": "address",
          "name": "account",
          "type": "address"
        }
      ],
      "name": "reportConsumer",
      "outputs": [],
      "stateMutability": "nonpayable",
      "type": "function"
    },
    {
      "inputs": [
        {
          "internalType": "address",
          "name": "account",
          "type": "address"
        }
      ],
      "name": "reportDistributor",
      "outputs": [],
      "stateMutability": "nonpayable",
      "type": "function"
    },
    {
      "inputs": [
        {
          "internalType": "address",
          "name": "account",
          "type": "address"
        }
      ],
      "name": "reportManufacturer",
      "outputs": [],
      "stateMutability": "nonpayable",
      "type": "function"
    },
    {
      "inputs": [
        {
          "internalType": "address",
          "name": "account",
          "type": "address"
        }
      ],
      "name": "reportRetailer",
      "outputs": [],
      "stateMutability": "nonpayable",
      "type": "function"
    },
    {
      "inputs": [
        {
          "internalType": "address",
          "name": "account",
          "type": "address"
        }
      ],
      "name": "unreportConsumer",
      "outputs": [],
      "stateMutability": "nonpayable",
      "type": "function"
    },
    {
      "inputs": [
        {
          "internalType": "address",
          "name": "account",
          "type": "address"
        }
      ],
      "name": "unreportDistributor",
      "outputs": [],
      "stateMutability": "nonpayable",
      "type": "function"
    },
    {
      "inputs": [
        {
          "internalType": "address",
          "name": "account",
          "type": "address"
        }
      ],
      "name": "unreportManufacturer",
      "outputs": [],
      "stateMutability": "nonpayable",
      "type": "function"
    },
    {
      "inputs": [
        {
          "internalType": "address",
          "name": "account",
          "type": "address"
        }
      ],
      "name": "unreportRetailer",
      "outputs": [],
      "stateMutability": "nonpayable",
      "type": "function"
    },
    {
      "inputs": [
        {
          "internalType": "uint256",
          "name": "uin",
          "type": "uint256"
        },
        {
          "internalType": "address",
          "name": "shipTo",
          "type": "address"
        }
      ],
      "name": "generateHash",
      "outputs": [
        {
          "internalType": "uint256",
          "name": "",
          "type": "uint256"
        }
      ],
      "stateMutability": "nonpayable",
      "type": "function"
    },
    {
      "inputs": [
        {
          "internalType": "string",
          "name": "_ProductName",
          "type": "string"
        },
        {
          "internalType": "string",
          "name": "_ProductDesc",
          "type": "string"
        },
        {
          "internalType": "string",
          "name": "_ProductType",
          "type": "string"
        },
        {
          "internalType": "bool",
          "name": "_collectible",
          "type": "bool"
        },
        {
          "internalType": "uint256",
          "name": "weight",
          "type": "uint256"
        }
      ],
      "name": "producebymanufacturer",
      "outputs": [
        {
          "internalType": "uint256",
          "name": "",
          "type": "uint256"
        }
      ],
      "stateMutability": "nonpayable",
      "type": "function"
    },
    {
      "inputs": [
        {
          "internalType": "uint256",
          "name": "uin",
          "type": "uint256"
        },
        {
          "internalType": "uint256",
          "name": "price",
          "type": "uint256"
        }
      ],
      "name": "forsalebymanufacturer",
      "outputs": [],
      "stateMutability": "nonpayable",
      "type": "function"
    },
    {
      "inputs": [
        {
          "internalType": "uint256",
          "name": "uin",
          "type": "uint256"
        },
        {
          "internalType": "address payable",
          "name": "shipTo",
          "type": "address"
        }
      ],
      "name": "shippedbymanufacturer",
      "outputs": [],
      "stateMutability": "nonpayable",
      "type": "function"
    },
    {
      "inputs": [
        {
          "internalType": "uint256",
          "name": "uin",
          "type": "uint256"
        }
      ],
      "name": "receivedbydistributor",
      "outputs": [],
      "stateMutability": "payable",
      "type": "function",
      "payable": true
    },
    {
      "inputs": [
        {
          "internalType": "uint256",
          "name": "uin",
          "type": "uint256"
        },
        {
          "internalType": "uint256",
          "name": "price",
          "type": "uint256"
        }
      ],
      "name": "forsalebydistributor",
      "outputs": [],
      "stateMutability": "nonpayable",
      "type": "function"
    },
    {
      "inputs": [
        {
          "internalType": "uint256",
          "name": "uin",
          "type": "uint256"
        },
        {
          "internalType": "address payable",
          "name": "shipTo",
          "type": "address"
        }
      ],
      "name": "shippedbydistributor",
      "outputs": [],
      "stateMutability": "nonpayable",
      "type": "function"
    },
    {
      "inputs": [
        {
          "internalType": "uint256",
          "name": "uin",
          "type": "uint256"
        }
      ],
      "name": "receivedbyretailer",
      "outputs": [],
      "stateMutability": "payable",
      "type": "function",
      "payable": true
    },
    {
      "inputs": [
        {
          "internalType": "uint256",
          "name": "uin",
          "type": "uint256"
        },
        {
          "internalType": "uint256",
          "name": "price",
          "type": "uint256"
        }
      ],
      "name": "forsalebyretailer",
      "outputs": [],
      "stateMutability": "nonpayable",
      "type": "function"
    },
    {
      "inputs": [
        {
          "internalType": "uint256",
          "name": "uin",
          "type": "uint256"
        },
        {
          "internalType": "address payable",
          "name": "shipTo",
          "type": "address"
        }
      ],
      "name": "shippedbyretailer",
      "outputs": [],
      "stateMutability": "nonpayable",
      "type": "function"
    },
    {
      "inputs": [
        {
          "internalType": "uint256",
          "name": "uin",
          "type": "uint256"
        }
      ],
      "name": "receivedbycustomer",
      "outputs": [],
      "stateMutability": "payable",
      "type": "function",
      "payable": true
    },
    {
      "inputs": [
        {
          "internalType": "uint256",
          "name": "uin",
          "type": "uint256"
        },
        {
          "internalType": "uint256",
          "name": "price",
          "type": "uint256"
        }
      ],
      "name": "collectibleforsalebycustomer",
      "outputs": [],
      "stateMutability": "nonpayable",
      "type": "function"
    },
    {
      "inputs": [
        {
          "internalType": "uint256",
          "name": "uin",
          "type": "uint256"
        },
        {
          "internalType": "address payable",
          "name": "ShipTo",
          "type": "address"
        }
      ],
      "name": "shippedcollectiblebycustomer",
      "outputs": [],
      "stateMutability": "nonpayable",
      "type": "function"
    },
    {
      "inputs": [
        {
          "internalType": "uint256",
          "name": "uin",
          "type": "uint256"
        }
      ],
      "name": "receivedcollectiblebycustomer",
      "outputs": [],
      "stateMutability": "payable",
      "type": "function",
      "payable": true
    },
    {
      "inputs": [
        {
          "internalType": "uint256",
          "name": "uin",
          "type": "uint256"
        }
      ],
      "name": "productDetail",
      "outputs": [
        {
          "components": [
            {
              "internalType": "uint256",
              "name": "uin",
              "type": "uint256"
            },
            {
              "internalType": "string",
              "name": "productName",
              "type": "string"
            },
            {
              "internalType": "string",
              "name": "productType",
              "type": "string"
            },
            {
              "internalType": "string",
              "name": "productDescription",
              "type": "string"
            },
            {
              "internalType": "address payable",
              "name": "manufacturerId",
              "type": "address"
            },
            {
              "internalType": "address payable",
              "name": "CurrentOwner",
              "type": "address"
            },
            {
              "internalType": "address payable",
              "name": "ShipTo",
              "type": "address"
            },
            {
              "internalType": "uint256",
              "name": "productDate",
              "type": "uint256"
            },
            {
              "internalType": "bool",
              "name": "collectible",
              "type": "bool"
            },
            {
              "internalType": "bool",
              "name": "composite",
              "type": "bool"
            },
            {
              "internalType": "bool",
              "name": "visibility",
              "type": "bool"
            },
            {
              "internalType": "uint256",
              "name": "weight",
              "type": "uint256"
            },
            {
              "internalType": "uint256",
              "name": "productPrice",
              "type": "uint256"
            },
            {
              "internalType": "uint256",
              "name": "productHash",
              "type": "uint256"
            },
            {
              "internalType": "enum SupplyChain.State",
              "name": "productState",
              "type": "uint8"
            }
          ],
          "internalType": "struct SupplyChain.Item",
          "name": "",
          "type": "tuple"
        }
      ],
      "stateMutability": "view",
      "type": "function",
      "constant": true
    },
    {
      "inputs": [
        {
          "internalType": "address",
          "name": "z",
          "type": "address"
        }
      ],
      "name": "getOwnedProducts",
      "outputs": [
        {
          "components": [
            {
              "internalType": "uint256",
              "name": "uin",
              "type": "uint256"
            },
            {
              "internalType": "string",
              "name": "productName",
              "type": "string"
            },
            {
              "internalType": "string",
              "name": "productType",
              "type": "string"
            },
            {
              "internalType": "string",
              "name": "productDescription",
              "type": "string"
            },
            {
              "internalType": "address payable",
              "name": "manufacturerId",
              "type": "address"
            },
            {
              "internalType": "address payable",
              "name": "CurrentOwner",
              "type": "address"
            },
            {
              "internalType": "address payable",
              "name": "ShipTo",
              "type": "address"
            },
            {
              "internalType": "uint256",
              "name": "productDate",
              "type": "uint256"
            },
            {
              "internalType": "bool",
              "name": "collectible",
              "type": "bool"
            },
            {
              "internalType": "bool",
              "name": "composite",
              "type": "bool"
            },
            {
              "internalType": "bool",
              "name": "visibility",
              "type": "bool"
            },
            {
              "internalType": "uint256",
              "name": "weight",
              "type": "uint256"
            },
            {
              "internalType": "uint256",
              "name": "productPrice",
              "type": "uint256"
            },
            {
              "internalType": "uint256",
              "name": "productHash",
              "type": "uint256"
            },
            {
              "internalType": "enum SupplyChain.State",
              "name": "productState",
              "type": "uint8"
            }
          ],
          "internalType": "struct SupplyChain.Item[]",
          "name": "",
          "type": "tuple[]"
        }
      ],
      "stateMutability": "view",
      "type": "function",
      "constant": true
    },
    {
      "inputs": [
        {
          "internalType": "address",
          "name": "z",
          "type": "address"
        }
      ],
      "name": "getShippedProducts",
      "outputs": [
        {
          "components": [
            {
              "internalType": "uint256",
              "name": "uin",
              "type": "uint256"
            },
            {
              "internalType": "string",
              "name": "productName",
              "type": "string"
            },
            {
              "internalType": "string",
              "name": "productType",
              "type": "string"
            },
            {
              "internalType": "string",
              "name": "productDescription",
              "type": "string"
            },
            {
              "internalType": "address payable",
              "name": "manufacturerId",
              "type": "address"
            },
            {
              "internalType": "address payable",
              "name": "CurrentOwner",
              "type": "address"
            },
            {
              "internalType": "address payable",
              "name": "ShipTo",
              "type": "address"
            },
            {
              "internalType": "uint256",
              "name": "productDate",
              "type": "uint256"
            },
            {
              "internalType": "bool",
              "name": "collectible",
              "type": "bool"
            },
            {
              "internalType": "bool",
              "name": "composite",
              "type": "bool"
            },
            {
              "internalType": "bool",
              "name": "visibility",
              "type": "bool"
            },
            {
              "internalType": "uint256",
              "name": "weight",
              "type": "uint256"
            },
            {
              "internalType": "uint256",
              "name": "productPrice",
              "type": "uint256"
            },
            {
              "internalType": "uint256",
              "name": "productHash",
              "type": "uint256"
            },
            {
              "internalType": "enum SupplyChain.State",
              "name": "productState",
              "type": "uint8"
            }
          ],
          "internalType": "struct SupplyChain.Item[]",
          "name": "",
          "type": "tuple[]"
        }
      ],
      "stateMutability": "view",
      "type": "function",
      "constant": true
    }
  ],
  "bytecode": "0x60806040526000600d5534801561001557600080fd5b50336000806101000a81548173ffffffffffffffffffffffffffffffffffffffff021916908373ffffffffffffffffffffffffffffffffffffffff160217905550615cbf80620000666000396000f3fe6080604052600436106101ee5760003560e01c806381d2e95c1161010d578063a4b2e157116100a0578063d9589fd11161006f578063d9589fd1146106e8578063e4e376a414610704578063ee6197cb1461072d578063f1b7f9ce14610756578063f8bd330b14610793576101ee565b8063a4b2e15714610630578063b2c8900914610659578063b4bdb42514610682578063c45cca3d146106ab576101ee565b806393318297116100dc57806393318297146105a657806398968794146105c25780639e76a293146105de578063a3cb25e114610607576101ee565b806381d2e95c146104da578063834ff739146105035780638ec4f505146105405780638f0c86fa14610569576101ee565b806342f35885116101855780635e68290e116101545780635e68290e146104225780635f8a5afa1461045f5780637250e2241461048857806375dcdeb1146104b1576101ee565b806342f358851461036357806352931de8146103a057806355cf64b4146103c95780635da09b88146103e5576101ee565b80631a42c582116101c15780631a42c582146102ab578063250bb38c146102e85780632b182379146103115780632c5ee9bf1461033a576101ee565b806301b8a64e146101f35780630fd22c841461021c578063112940f91461024557806317d4a4911461026e575b600080fd5b3480156101ff57600080fd5b5061021a60048036038101906102159190614ffc565b6107bc565b005b34801561022857600080fd5b50610243600480360381019061023e919061509a565b610945565b005b34801561025157600080fd5b5061026c6004803603810190610267919061509a565b610951565b005b34801561027a57600080fd5b506102956004803603810190610290919061509a565b6109b5565b6040516102a291906150e2565b60405180910390f35b3480156102b757600080fd5b506102d260048036038101906102cd919061509a565b6109d2565b6040516102df919061545f565b60405180910390f35b3480156102f457600080fd5b5061030f600480360381019061030a91906154ad565b610ef5565b005b34801561031d57600080fd5b50610338600480360381019061033391906154ad565b6111c6565b005b34801561034657600080fd5b50610361600480360381019061035c919061509a565b611497565b005b34801561036f57600080fd5b5061038a600480360381019061038591906154ed565b6114a3565b604051610397919061566b565b60405180910390f35b3480156103ac57600080fd5b506103c760048036038101906103c2919061509a565b611847565b005b6103e360048036038101906103de91906154ed565b611853565b005b3480156103f157600080fd5b5061040c6004803603810190610407919061509a565b611d30565b60405161041991906150e2565b60405180910390f35b34801561042e57600080fd5b506104496004803603810190610444919061568d565b611d4d565b60405161045691906156dc565b60405180910390f35b34801561046b57600080fd5b506104866004803603810190610481919061509a565b611dbb565b005b34801561049457600080fd5b506104af60048036038101906104aa919061509a565b611e1f565b005b3480156104bd57600080fd5b506104d860048036038101906104d3919061509a565b611e83565b005b3480156104e657600080fd5b5061050160048036038101906104fc919061509a565b611e8f565b005b34801561050f57600080fd5b5061052a6004803603810190610525919061509a565b611e9b565b60405161053791906150e2565b60405180910390f35b34801561054c57600080fd5b506105676004803603810190610562919061509a565b611eb8565b005b34801561057557600080fd5b50610590600480360381019061058b919061509a565b611f1c565b60405161059d91906150e2565b60405180910390f35b6105c060048036038101906105bb91906154ed565b611f39565b005b6105dc60048036038101906105d791906154ed565b612437565b005b3480156105ea57600080fd5b50610605600480360381019061060091906154ad565b6128ff565b005b34801561061357600080fd5b5061062e6004803603810190610629919061509a565b612bd0565b005b34801561063c57600080fd5b5061065760048036038101906106529190614ffc565b612bdc565b005b34801561066557600080fd5b50610680600480360381019061067b9190614ffc565b612d94565b005b34801561068e57600080fd5b506106a960048036038101906106a49190614ffc565b612f81565b005b3480156106b757600080fd5b506106d260048036038101906106cd919061509a565b613139565b6040516106df919061545f565b60405180910390f35b61070260048036038101906106fd91906154ed565b61365c565b005b34801561071057600080fd5b5061072b6004803603810190610726919061509a565b613b24565b005b34801561073957600080fd5b50610754600480360381019061074f91906154ad565b613b30565b005b34801561076257600080fd5b5061077d60048036038101906107789190615858565b613e01565b60405161078a91906156dc565b60405180910390f35b34801561079f57600080fd5b506107ba60048036038101906107b5919061509a565b614215565b005b336107c681611d30565b6107cf57600080fd5b82600a600082815260200190815260200160002060050160009054906101000a900473ffffffffffffffffffffffffffffffffffffffff1673ffffffffffffffffffffffffffffffffffffffff163373ffffffffffffffffffffffffffffffffffffffff161461083e57600080fd5b836006600c81111561085357610852615201565b5b600a6000838152602001908152602001600020600c0160009054906101000a900460ff16600c81111561088957610888615201565b5b1461089357600080fd5b6007600a6000878152602001908152602001600020600c0160006101000a81548160ff0219169083600c8111156108cd576108cc615201565b5b021790555083600a6000878152602001908152602001600020600a01819055503373ffffffffffffffffffffffffffffffffffffffff16857f5deefb19e7e549a7e04121977fe61c27d9d2842fe25f92cec6ab2d9dfbb8cffe4287604051610936929190615927565b60405180910390a35050505050565b61094e81614221565b50565b3373ffffffffffffffffffffffffffffffffffffffff1660008054906101000a900473ffffffffffffffffffffffffffffffffffffffff1673ffffffffffffffffffffffffffffffffffffffff16146109a957600080fd5b6109b28161427b565b50565b60006109cb8260056142d590919063ffffffff16565b9050919050565b60606000600b60008473ffffffffffffffffffffffffffffffffffffffff1673ffffffffffffffffffffffffffffffffffffffff1681526020019081526020016000206001018054905067ffffffffffffffff811115610a3557610a34615701565b5b604051908082528060200260200182016040528015610a6e57816020015b610a5b614e3f565b815260200190600190039081610a535790505b50905060005b600b60008573ffffffffffffffffffffffffffffffffffffffff1673ffffffffffffffffffffffffffffffffffffffff16815260200190815260200160002060010180549050811015610eeb576000600a6000600b60008873ffffffffffffffffffffffffffffffffffffffff1673ffffffffffffffffffffffffffffffffffffffff1681526020019081526020016000206001018481548110610b1b57610b1a615950565b5b90600052602060002001548152602001908152602001600020905080604051806101e001604052908160008201548152602001600182018054610b5d906159ae565b80601f0160208091040260200160405190810160405280929190818152602001828054610b89906159ae565b8015610bd65780601f10610bab57610100808354040283529160200191610bd6565b820191906000526020600020905b815481529060010190602001808311610bb957829003601f168201915b50505050508152602001600282018054610bef906159ae565b80601f0160208091040260200160405190810160405280929190818152602001828054610c1b906159ae565b8015610c685780601f10610c3d57610100808354040283529160200191610c68565b820191906000526020600020905b815481529060010190602001808311610c4b57829003601f168201915b50505050508152602001600382018054610c81906159ae565b80601f0160208091040260200160405190810160405280929190818152602001828054610cad906159ae565b8015610cfa5780601f10610ccf57610100808354040283529160200191610cfa565b820191906000526020600020905b815481529060010190602001808311610cdd57829003601f168201915b505050505081526020016004820160009054906101000a900473ffffffffffffffffffffffffffffffffffffffff1673ffffffffffffffffffffffffffffffffffffffff1673ffffffffffffffffffffffffffffffffffffffff1681526020016005820160009054906101000a900473ffffffffffffffffffffffffffffffffffffffff1673ffffffffffffffffffffffffffffffffffffffff1673ffffffffffffffffffffffffffffffffffffffff1681526020016006820160009054906101000a900473ffffffffffffffffffffffffffffffffffffffff1673ffffffffffffffffffffffffffffffffffffffff1673ffffffffffffffffffffffffffffffffffffffff168152602001600782015481526020016008820160009054906101000a900460ff161515151581526020016008820160019054906101000a900460ff161515151581526020016008820160029054906101000a900460ff1615151515815260200160098201548152602001600a8201548152602001600b8201548152602001600c820160009054906101000a900460ff16600c811115610ea357610ea2615201565b5b600c811115610eb557610eb4615201565b5b81525050838381518110610ecc57610ecb615950565b5b6020026020010181905250508080610ee390615a0f565b915050610a74565b5080915050919050565b81600a600082815260200190815260200160002060050160009054906101000a900473ffffffffffffffffffffffffffffffffffffffff1673ffffffffffffffffffffffffffffffffffffffff163373ffffffffffffffffffffffffffffffffffffffff1614610f6457600080fd5b33610f6e81611e9b565b610f7757600080fd5b82610f8181611e9b565b610f8a57600080fd5b84600a600c811115610f9f57610f9e615201565b5b600a6000838152602001908152602001600020600c0160009054906101000a900460ff16600c811115610fd557610fd4615201565b5b14610fdf57600080fd5b600b600a6000888152602001908152602001600020600c0160006101000a81548160ff0219169083600c81111561101957611018615201565b5b021790555084600a600088815260200190815260200160002060060160006101000a81548173ffffffffffffffffffffffffffffffffffffffff021916908373ffffffffffffffffffffffffffffffffffffffff160217905550600c60008673ffffffffffffffffffffffffffffffffffffffff1673ffffffffffffffffffffffffffffffffffffffff16815260200190815260200160002060000160008154809291906110c690615a0f565b9190505550600c60008673ffffffffffffffffffffffffffffffffffffffff1673ffffffffffffffffffffffffffffffffffffffff16815260200190815260200160002060010186908060018154018082558091505060019003906000526020600020016000909190919091505561113e8686611d4d565b600a6000888152602001908152602001600020600b01819055508473ffffffffffffffffffffffffffffffffffffffff163373ffffffffffffffffffffffffffffffffffffffff16877fc188b500118c60ef4779ac03c68763ffbdb2be1f6c016872c9e9db545cd7c92f426040516111b691906156dc565b60405180910390a4505050505050565b336111d081611d30565b6111d957600080fd5b82600a600082815260200190815260200160002060050160009054906101000a900473ffffffffffffffffffffffffffffffffffffffff1673ffffffffffffffffffffffffffffffffffffffff163373ffffffffffffffffffffffffffffffffffffffff161461124857600080fd5b8261125281611e9b565b61125b57600080fd5b846007600c8111156112705761126f615201565b5b600a6000838152602001908152602001600020600c0160009054906101000a900460ff16600c8111156112a6576112a5615201565b5b146112b057600080fd5b6008600a6000888152602001908152602001600020600c0160006101000a81548160ff0219169083600c8111156112ea576112e9615201565b5b021790555084600a600088815260200190815260200160002060060160006101000a81548173ffffffffffffffffffffffffffffffffffffffff021916908373ffffffffffffffffffffffffffffffffffffffff160217905550600c60008673ffffffffffffffffffffffffffffffffffffffff1673ffffffffffffffffffffffffffffffffffffffff168152602001908152602001600020600001600081548092919061139790615a0f565b9190505550600c60008673ffffffffffffffffffffffffffffffffffffffff1673ffffffffffffffffffffffffffffffffffffffff16815260200190815260200160002060010186908060018154018082558091505060019003906000526020600020016000909190919091505561140f8686611d4d565b600a6000888152602001908152602001600020600b01819055508473ffffffffffffffffffffffffffffffffffffffff163373ffffffffffffffffffffffffffffffffffffffff16877fff4edcb43f0794bbff4e154b1d284970e59c24e8100f6439c1cecaf0b87eb0904260405161148791906156dc565b60405180910390a4505050505050565b6114a081614367565b50565b6114ab614e3f565b600a6000838152602001908152602001600020604051806101e0016040529081600082015481526020016001820180546114e4906159ae565b80601f0160208091040260200160405190810160405280929190818152602001828054611510906159ae565b801561155d5780601f106115325761010080835404028352916020019161155d565b820191906000526020600020905b81548152906001019060200180831161154057829003601f168201915b50505050508152602001600282018054611576906159ae565b80601f01602080910402602001604051908101604052809291908181526020018280546115a2906159ae565b80156115ef5780601f106115c4576101008083540402835291602001916115ef565b820191906000526020600020905b8154815290600101906020018083116115d257829003601f168201915b50505050508152602001600382018054611608906159ae565b80601f0160208091040260200160405190810160405280929190818152602001828054611634906159ae565b80156116815780601f1061165657610100808354040283529160200191611681565b820191906000526020600020905b81548152906001019060200180831161166457829003601f168201915b505050505081526020016004820160009054906101000a900473ffffffffffffffffffffffffffffffffffffffff1673ffffffffffffffffffffffffffffffffffffffff1673ffffffffffffffffffffffffffffffffffffffff1681526020016005820160009054906101000a900473ffffffffffffffffffffffffffffffffffffffff1673ffffffffffffffffffffffffffffffffffffffff1673ffffffffffffffffffffffffffffffffffffffff1681526020016006820160009054906101000a900473ffffffffffffffffffffffffffffffffffffffff1673ffffffffffffffffffffffffffffffffffffffff1673ffffffffffffffffffffffffffffffffffffffff168152602001600782015481526020016008820160009054906101000a900460ff161515151581526020016008820160019054906101000a900460ff161515151581526020016008820160029054906101000a900460ff1615151515815260200160098201548152602001600a8201548152602001600b8201548152602001600c820160009054906101000a900460ff16600c81111561182a57611829615201565b5b600c81111561183c5761183b615201565b5b815250509050919050565b611850816143c1565b50565b3361185d81611f1c565b61186657600080fd5b600a6000838152602001908152602001600020600a01548034101561188a57600080fd5b826002600c81111561189f5761189e615201565b5b600a6000838152602001908152602001600020600c0160009054906101000a900460ff16600c8111156118d5576118d4615201565b5b146118df57600080fd5b836118ea8133611d4d565b600a6000838152602001908152602001600020600b01541461190b57600080fd5b6003600a6000878152602001908152602001600020600c0160006101000a81548160ff0219169083600c81111561194557611944615201565b5b02179055506000600a600087815260200190815260200160002060080160026101000a81548160ff021916908315150217905550600a600086815260200190815260200160002060050160009054906101000a900473ffffffffffffffffffffffffffffffffffffffff1673ffffffffffffffffffffffffffffffffffffffff166108fc600a6000888152602001908152602001600020600a01549081150290604051600060405180830381858888f19350505050158015611a0b573d6000803e3d6000fd5b50611a4c85600a600088815260200190815260200160002060050160009054906101000a900473ffffffffffffffffffffffffffffffffffffffff1661441b565b600b6000600a600088815260200190815260200160002060050160009054906101000a900473ffffffffffffffffffffffffffffffffffffffff1673ffffffffffffffffffffffffffffffffffffffff1673ffffffffffffffffffffffffffffffffffffffff1681526020019081526020016000206000016000815480929190611ad590615a58565b919050555033600a600087815260200190815260200160002060050160006101000a81548173ffffffffffffffffffffffffffffffffffffffff021916908373ffffffffffffffffffffffffffffffffffffffff160217905550600c6000600a600088815260200190815260200160002060050160009054906101000a900473ffffffffffffffffffffffffffffffffffffffff1673ffffffffffffffffffffffffffffffffffffffff1673ffffffffffffffffffffffffffffffffffffffff1681526020019081526020016000206000016000815480929190611bb890615a58565b9190505550611bfd85600a600088815260200190815260200160002060050160009054906101000a900473ffffffffffffffffffffffffffffffffffffffff16614668565b6000600a6000878152602001908152602001600020600a0181905550600b60003373ffffffffffffffffffffffffffffffffffffffff1673ffffffffffffffffffffffffffffffffffffffff1681526020019081526020016000206000016000815480929190611c6c90615a0f565b9190505550600b60003373ffffffffffffffffffffffffffffffffffffffff1673ffffffffffffffffffffffffffffffffffffffff1681526020019081526020016000206001018590806001815401808255809150506001900390600052602060002001600090919091909150553373ffffffffffffffffffffffffffffffffffffffff16857f28d2d7e57b87b5cd5e17a265773ce73b97b3d2e4595bc6239f69bb0915536d5942604051611d2191906156dc565b60405180910390a35050505050565b6000611d468260016142d590919063ffffffff16565b9050919050565b600082600a600085815260200190815260200160002060050160009054906101000a900473ffffffffffffffffffffffffffffffffffffffff1683604051602001611d9a93929190615b14565b6040516020818303038152906040528051906020012060001c905092915050565b3373ffffffffffffffffffffffffffffffffffffffff1660008054906101000a900473ffffffffffffffffffffffffffffffffffffffff1673ffffffffffffffffffffffffffffffffffffffff1614611e1357600080fd5b611e1c816148b5565b50565b3373ffffffffffffffffffffffffffffffffffffffff1660008054906101000a900473ffffffffffffffffffffffffffffffffffffffff1673ffffffffffffffffffffffffffffffffffffffff1614611e7757600080fd5b611e808161490f565b50565b611e8c81614969565b50565b611e98816149c3565b50565b6000611eb18260036142d590919063ffffffff16565b9050919050565b3373ffffffffffffffffffffffffffffffffffffffff1660008054906101000a900473ffffffffffffffffffffffffffffffffffffffff1673ffffffffffffffffffffffffffffffffffffffff1614611f1057600080fd5b611f1981614a1d565b50565b6000611f328260076142d590919063ffffffff16565b9050919050565b33611f4381611e9b565b611f4c57600080fd5b8160011515600a600083815260200190815260200160002060080160009054906101000a900460ff16151514611f8157600080fd5b600a6000848152602001908152602001600020600a015480341015611fa557600080fd5b83600b600c811115611fba57611fb9615201565b5b600a6000838152602001908152602001600020600c0160009054906101000a900460ff16600c811115611ff057611fef615201565b5b14611ffa57600080fd5b846120058133611d4d565b600a6000838152602001908152602001600020600b01541461202657600080fd5b6009600a6000888152602001908152602001600020600c0160006101000a81548160ff0219169083600c8111156120605761205f615201565b5b02179055506000600a600088815260200190815260200160002060080160026101000a81548160ff021916908315150217905550600a600087815260200190815260200160002060050160009054906101000a900473ffffffffffffffffffffffffffffffffffffffff1673ffffffffffffffffffffffffffffffffffffffff166108fc600a6000898152602001908152602001600020600a01549081150290604051600060405180830381858888f19350505050158015612126573d6000803e3d6000fd5b50600b6000600a600089815260200190815260200160002060050160009054906101000a900473ffffffffffffffffffffffffffffffffffffffff1673ffffffffffffffffffffffffffffffffffffffff1673ffffffffffffffffffffffffffffffffffffffff16815260200190815260200160002060000160008154809291906121b090615a58565b91905055506121f586600a600089815260200190815260200160002060050160009054906101000a900473ffffffffffffffffffffffffffffffffffffffff1661441b565b33600a600088815260200190815260200160002060050160006101000a81548173ffffffffffffffffffffffffffffffffffffffff021916908373ffffffffffffffffffffffffffffffffffffffff160217905550600c6000600a600089815260200190815260200160002060050160009054906101000a900473ffffffffffffffffffffffffffffffffffffffff1673ffffffffffffffffffffffffffffffffffffffff1673ffffffffffffffffffffffffffffffffffffffff16815260200190815260200160002060000160008154809291906122d390615a58565b919050555061231886600a600089815260200190815260200160002060050160009054906101000a900473ffffffffffffffffffffffffffffffffffffffff16614668565b6000600a6000888152602001908152602001600020600a0181905550600b60003373ffffffffffffffffffffffffffffffffffffffff1673ffffffffffffffffffffffffffffffffffffffff168152602001908152602001600020600001600081548092919061238790615a0f565b9190505550600b60003373ffffffffffffffffffffffffffffffffffffffff1673ffffffffffffffffffffffffffffffffffffffff168152602001908152602001600020600101869080600181540180825580915050600190039060005260206000200160009091909190915055857fab24060fff978f4fefd01f7c5907e6b14f60d643e4c578a1cc8b17299cff13404233604051612427929190615b60565b60405180910390a2505050505050565b3361244181611e9b565b61244a57600080fd5b600a6000838152602001908152602001600020600a01548034101561246e57600080fd5b826008600c81111561248357612482615201565b5b600a6000838152602001908152602001600020600c0160009054906101000a900460ff16600c8111156124b9576124b8615201565b5b146124c357600080fd5b836124ce8133611d4d565b600a6000838152602001908152602001600020600b0154146124ef57600080fd5b6009600a6000878152602001908152602001600020600c0160006101000a81548160ff0219169083600c81111561252957612528615201565b5b02179055506000600a600087815260200190815260200160002060080160026101000a81548160ff021916908315150217905550600a600086815260200190815260200160002060050160009054906101000a900473ffffffffffffffffffffffffffffffffffffffff1673ffffffffffffffffffffffffffffffffffffffff166108fc600a6000888152602001908152602001600020600a01549081150290604051600060405180830381858888f193505050501580156125ef573d6000803e3d6000fd5b50600b6000600a600088815260200190815260200160002060050160009054906101000a900473ffffffffffffffffffffffffffffffffffffffff1673ffffffffffffffffffffffffffffffffffffffff1673ffffffffffffffffffffffffffffffffffffffff168152602001908152602001600020600001600081548092919061267990615a58565b91905055506126be85600a600088815260200190815260200160002060050160009054906101000a900473ffffffffffffffffffffffffffffffffffffffff1661441b565b33600a600087815260200190815260200160002060050160006101000a81548173ffffffffffffffffffffffffffffffffffffffff021916908373ffffffffffffffffffffffffffffffffffffffff160217905550600c6000600a600088815260200190815260200160002060050160009054906101000a900473ffffffffffffffffffffffffffffffffffffffff1673ffffffffffffffffffffffffffffffffffffffff1673ffffffffffffffffffffffffffffffffffffffff168152602001908152602001600020600001600081548092919061279c90615a58565b91905055506127e185600a600088815260200190815260200160002060050160009054906101000a900473ffffffffffffffffffffffffffffffffffffffff16614668565b6000600a6000878152602001908152602001600020600a0181905550600b60003373ffffffffffffffffffffffffffffffffffffffff1673ffffffffffffffffffffffffffffffffffffffff168152602001908152602001600020600001600081548092919061285090615a0f565b9190505550600b60003373ffffffffffffffffffffffffffffffffffffffff1673ffffffffffffffffffffffffffffffffffffffff168152602001908152602001600020600101859080600181540180825580915050600190039060005260206000200160009091909190915055847f0d607424e7c8d7272e3adc76ab8e220c0de7a8c179d358e62ac8b7b22a55792242336040516128f0929190615b60565b60405180910390a25050505050565b33612909816109b5565b61291257600080fd5b82600a600082815260200190815260200160002060050160009054906101000a900473ffffffffffffffffffffffffffffffffffffffff1673ffffffffffffffffffffffffffffffffffffffff163373ffffffffffffffffffffffffffffffffffffffff161461298157600080fd5b8261298b81611f1c565b61299457600080fd5b846001600c8111156129a9576129a8615201565b5b600a6000838152602001908152602001600020600c0160009054906101000a900460ff16600c8111156129df576129de615201565b5b146129e957600080fd5b6002600a6000888152602001908152602001600020600c0160006101000a81548160ff0219169083600c811115612a2357612a22615201565b5b021790555084600a600088815260200190815260200160002060060160006101000a81548173ffffffffffffffffffffffffffffffffffffffff021916908373ffffffffffffffffffffffffffffffffffffffff160217905550600c60008673ffffffffffffffffffffffffffffffffffffffff1673ffffffffffffffffffffffffffffffffffffffff1681526020019081526020016000206000016000815480929190612ad090615a0f565b9190505550600c60008673ffffffffffffffffffffffffffffffffffffffff1673ffffffffffffffffffffffffffffffffffffffff168152602001908152602001600020600101869080600181540180825580915050600190039060005260206000200160009091909190915055612b488686611d4d565b600a6000888152602001908152602001600020600b01819055508473ffffffffffffffffffffffffffffffffffffffff163373ffffffffffffffffffffffffffffffffffffffff16877fef1cb90ab53defb050ecdf1bec6f745742f554e1b09526e39f960d571cd1f3bd42604051612bc091906156dc565b60405180910390a4505050505050565b612bd981614a77565b50565b33612be681611f1c565b612bef57600080fd5b82600a600082815260200190815260200160002060050160009054906101000a900473ffffffffffffffffffffffffffffffffffffffff1673ffffffffffffffffffffffffffffffffffffffff163373ffffffffffffffffffffffffffffffffffffffff1614612c5e57600080fd5b836003600c811115612c7357612c72615201565b5b600a6000838152602001908152602001600020600c0160009054906101000a900460ff16600c811115612ca957612ca8615201565b5b14612cb357600080fd5b6001600a600087815260200190815260200160002060080160026101000a81548160ff0219169083151502179055506004600a6000878152602001908152602001600020600c0160006101000a81548160ff0219169083600c811115612d1c57612d1b615201565b5b021790555083600a6000878152602001908152602001600020600a01819055503373ffffffffffffffffffffffffffffffffffffffff16857f02b81c1405d612f3db14b449985a4aabdff28384bb7e12c5e4c4aa9fa1e9f9af4287604051612d85929190615927565b60405180910390a35050505050565b81600a600082815260200190815260200160002060050160009054906101000a900473ffffffffffffffffffffffffffffffffffffffff1673ffffffffffffffffffffffffffffffffffffffff163373ffffffffffffffffffffffffffffffffffffffff1614612e0357600080fd5b33612e0d81611e9b565b612e1657600080fd5b836009600c811115612e2b57612e2a615201565b5b600a6000838152602001908152602001600020600c0160009054906101000a900460ff16600c811115612e6157612e60615201565b5b14612e6b57600080fd5b8460011515600a600083815260200190815260200160002060080160009054906101000a900460ff16151514612ea057600080fd5b600a806000888152602001908152602001600020600c0160006101000a81548160ff0219169083600c811115612ed957612ed8615201565b5b021790555084600a6000888152602001908152602001600020600a01819055506001600a600088815260200190815260200160002060080160026101000a81548160ff0219169083151502179055503373ffffffffffffffffffffffffffffffffffffffff16867f15f96be6e4c7b03490c8220da8251fffd4f5f08ba5a8713a96c746c1b71d25474288604051612f71929190615927565b60405180910390a3505050505050565b33612f8b816109b5565b612f9457600080fd5b82600a600082815260200190815260200160002060050160009054906101000a900473ffffffffffffffffffffffffffffffffffffffff1673ffffffffffffffffffffffffffffffffffffffff163373ffffffffffffffffffffffffffffffffffffffff161461300357600080fd5b836000600c81111561301857613017615201565b5b600a6000838152602001908152602001600020600c0160009054906101000a900460ff16600c81111561304e5761304d615201565b5b1461305857600080fd5b6001600a600087815260200190815260200160002060080160026101000a81548160ff0219169083151502179055506001600a6000878152602001908152602001600020600c0160006101000a81548160ff0219169083600c8111156130c1576130c0615201565b5b021790555083600a6000878152602001908152602001600020600a01819055503373ffffffffffffffffffffffffffffffffffffffff16857f191580e268a8474c31b11f8958417d1f71b35d25884cd5e49ab272d6faaa01b5428760405161312a929190615927565b60405180910390a35050505050565b60606000600c60008473ffffffffffffffffffffffffffffffffffffffff1673ffffffffffffffffffffffffffffffffffffffff1681526020019081526020016000206001018054905067ffffffffffffffff81111561319c5761319b615701565b5b6040519080825280602002602001820160405280156131d557816020015b6131c2614e3f565b8152602001906001900390816131ba5790505b50905060005b600c60008573ffffffffffffffffffffffffffffffffffffffff1673ffffffffffffffffffffffffffffffffffffffff16815260200190815260200160002060010180549050811015613652576000600a6000600c60008873ffffffffffffffffffffffffffffffffffffffff1673ffffffffffffffffffffffffffffffffffffffff168152602001908152602001600020600101848154811061328257613281615950565b5b90600052602060002001548152602001908152602001600020905080604051806101e0016040529081600082015481526020016001820180546132c4906159ae565b80601f01602080910402602001604051908101604052809291908181526020018280546132f0906159ae565b801561333d5780601f106133125761010080835404028352916020019161333d565b820191906000526020600020905b81548152906001019060200180831161332057829003601f168201915b50505050508152602001600282018054613356906159ae565b80601f0160208091040260200160405190810160405280929190818152602001828054613382906159ae565b80156133cf5780601f106133a4576101008083540402835291602001916133cf565b820191906000526020600020905b8154815290600101906020018083116133b257829003601f168201915b505050505081526020016003820180546133e8906159ae565b80601f0160208091040260200160405190810160405280929190818152602001828054613414906159ae565b80156134615780601f1061343657610100808354040283529160200191613461565b820191906000526020600020905b81548152906001019060200180831161344457829003601f168201915b505050505081526020016004820160009054906101000a900473ffffffffffffffffffffffffffffffffffffffff1673ffffffffffffffffffffffffffffffffffffffff1673ffffffffffffffffffffffffffffffffffffffff1681526020016005820160009054906101000a900473ffffffffffffffffffffffffffffffffffffffff1673ffffffffffffffffffffffffffffffffffffffff1673ffffffffffffffffffffffffffffffffffffffff1681526020016006820160009054906101000a900473ffffffffffffffffffffffffffffffffffffffff1673ffffffffffffffffffffffffffffffffffffffff1673ffffffffffffffffffffffffffffffffffffffff168152602001600782015481526020016008820160009054906101000a900460ff161515151581526020016008820160019054906101000a900460ff161515151581526020016008820160029054906101000a900460ff1615151515815260200160098201548152602001600a8201548152602001600b8201548152602001600c820160009054906101000a900460ff16600c81111561360a57613609615201565b5b600c81111561361c5761361b615201565b5b8152505083838151811061363357613632615950565b5b602002602001018190525050808061364a90615a0f565b9150506131db565b5080915050919050565b3361366681611d30565b61366f57600080fd5b600a6000838152602001908152602001600020600a01548034101561369357600080fd5b826005600c8111156136a8576136a7615201565b5b600a6000838152602001908152602001600020600c0160009054906101000a900460ff16600c8111156136de576136dd615201565b5b146136e857600080fd5b836136f38133611d4d565b600a6000838152602001908152602001600020600b01541461371457600080fd5b6006600a6000878152602001908152602001600020600c0160006101000a81548160ff0219169083600c81111561374e5761374d615201565b5b02179055506000600a600087815260200190815260200160002060080160026101000a81548160ff021916908315150217905550600a600086815260200190815260200160002060050160009054906101000a900473ffffffffffffffffffffffffffffffffffffffff1673ffffffffffffffffffffffffffffffffffffffff166108fc600a6000888152602001908152602001600020600a01549081150290604051600060405180830381858888f19350505050158015613814573d6000803e3d6000fd5b50600b6000600a600088815260200190815260200160002060050160009054906101000a900473ffffffffffffffffffffffffffffffffffffffff1673ffffffffffffffffffffffffffffffffffffffff1673ffffffffffffffffffffffffffffffffffffffff168152602001908152602001600020600001600081548092919061389e90615a58565b91905055506138e385600a600088815260200190815260200160002060050160009054906101000a900473ffffffffffffffffffffffffffffffffffffffff1661441b565b33600a600087815260200190815260200160002060050160006101000a81548173ffffffffffffffffffffffffffffffffffffffff021916908373ffffffffffffffffffffffffffffffffffffffff160217905550600c6000600a600088815260200190815260200160002060050160009054906101000a900473ffffffffffffffffffffffffffffffffffffffff1673ffffffffffffffffffffffffffffffffffffffff1673ffffffffffffffffffffffffffffffffffffffff16815260200190815260200160002060000160008154809291906139c190615a58565b9190505550613a0685600a600088815260200190815260200160002060050160009054906101000a900473ffffffffffffffffffffffffffffffffffffffff16614668565b6000600a6000878152602001908152602001600020600a0181905550600b60003373ffffffffffffffffffffffffffffffffffffffff1673ffffffffffffffffffffffffffffffffffffffff1681526020019081526020016000206000016000815480929190613a7590615a0f565b9190505550600b60003373ffffffffffffffffffffffffffffffffffffffff1673ffffffffffffffffffffffffffffffffffffffff168152602001908152602001600020600101859080600181540180825580915050600190039060005260206000200160009091909190915055847f568f99bfa0294af6be0e3aafa4f1109a23175d03006f5e4341622b2e3ce5c1a44233604051613b15929190615b60565b60405180910390a25050505050565b613b2d81614ad1565b50565b33613b3a81611f1c565b613b4357600080fd5b82600a600082815260200190815260200160002060050160009054906101000a900473ffffffffffffffffffffffffffffffffffffffff1673ffffffffffffffffffffffffffffffffffffffff163373ffffffffffffffffffffffffffffffffffffffff1614613bb257600080fd5b82613bbc81611d30565b613bc557600080fd5b846004600c811115613bda57613bd9615201565b5b600a6000838152602001908152602001600020600c0160009054906101000a900460ff16600c811115613c1057613c0f615201565b5b14613c1a57600080fd5b6005600a6000888152602001908152602001600020600c0160006101000a81548160ff0219169083600c811115613c5457613c53615201565b5b021790555084600a600088815260200190815260200160002060060160006101000a81548173ffffffffffffffffffffffffffffffffffffffff021916908373ffffffffffffffffffffffffffffffffffffffff160217905550600c60008673ffffffffffffffffffffffffffffffffffffffff1673ffffffffffffffffffffffffffffffffffffffff1681526020019081526020016000206000016000815480929190613d0190615a0f565b9190505550600c60008673ffffffffffffffffffffffffffffffffffffffff1673ffffffffffffffffffffffffffffffffffffffff168152602001908152602001600020600101869080600181540180825580915050600190039060005260206000200160009091909190915055613d798686611d4d565b600a6000888152602001908152602001600020600b01819055508473ffffffffffffffffffffffffffffffffffffffff163373ffffffffffffffffffffffffffffffffffffffff16877ff0085f598ab3ac050dca19ea301994110bdc7e266c0baf0ac5d4604dadd913d242604051613df191906156dc565b60405180910390a4505050505050565b600033613e0d816109b5565b613e1657600080fd5b6000613e20614b2b565b90506000339050604051806101e001604052808381526020018a81526020018881526020018981526020018273ffffffffffffffffffffffffffffffffffffffff1681526020018273ffffffffffffffffffffffffffffffffffffffff168152602001600073ffffffffffffffffffffffffffffffffffffffff168152602001428152602001871515815260200160001515815260200160001515815260200186815260200160008152602001600081526020016000600c811115613ee857613ee7615201565b5b815250600a6000848152602001908152602001600020600082015181600001556020820151816001019080519060200190613f24929190614f0f565b506040820151816002019080519060200190613f41929190614f0f565b506060820151816003019080519060200190613f5e929190614f0f565b5060808201518160040160006101000a81548173ffffffffffffffffffffffffffffffffffffffff021916908373ffffffffffffffffffffffffffffffffffffffff16021790555060a08201518160050160006101000a81548173ffffffffffffffffffffffffffffffffffffffff021916908373ffffffffffffffffffffffffffffffffffffffff16021790555060c08201518160060160006101000a81548173ffffffffffffffffffffffffffffffffffffffff021916908373ffffffffffffffffffffffffffffffffffffffff16021790555060e082015181600701556101008201518160080160006101000a81548160ff0219169083151502179055506101208201518160080160016101000a81548160ff0219169083151502179055506101408201518160080160026101000a81548160ff021916908315150217905550610160820151816009015561018082015181600a01556101a082015181600b01556101c082015181600c0160006101000a81548160ff0219169083600c8111156140ee576140ed615201565b5b0217905550905050600b60008273ffffffffffffffffffffffffffffffffffffffff1673ffffffffffffffffffffffffffffffffffffffff168152602001908152602001600020600001600081548092919061414990615a0f565b9190505550600b60008273ffffffffffffffffffffffffffffffffffffffff1673ffffffffffffffffffffffffffffffffffffffff1681526020019081526020016000206001018290806001815401808255809150506001900390600052602060002001600090919091909150553373ffffffffffffffffffffffffffffffffffffffff16827f5927e9cc693825f286f7181d772897345cef501932018aa4196ad97926cd5424426040516141fe91906156dc565b60405180910390a381935050505095945050505050565b61421e81614b89565b50565b614235816001614be390919063ffffffff16565b8073ffffffffffffffffffffffffffffffffffffffff167fe0bf0e8509bb65b00de9afcbc3870546ee37f1442ebfd9fe4211362ceb9dbce360405160405180910390a250565b61428f816003614c8e90919063ffffffff16565b8073ffffffffffffffffffffffffffffffffffffffff167f28b26e7a3d20aedbc5f8f2ebf7da671c0491723a2b78f47a097b0e46dee0714260405160405180910390a250565b60008073ffffffffffffffffffffffffffffffffffffffff168273ffffffffffffffffffffffffffffffffffffffff16141561431057600080fd5b8260000160008373ffffffffffffffffffffffffffffffffffffffff1673ffffffffffffffffffffffffffffffffffffffff16815260200190815260200160002060009054906101000a900460ff16905092915050565b61437b816003614d9490919063ffffffff16565b8073ffffffffffffffffffffffffffffffffffffffff167f32dc543199df7e5ecd26e37915c895ccf94e87339d27cfe42886e67b06070fa960405160405180910390a250565b6143d5816007614d9490919063ffffffff16565b8073ffffffffffffffffffffffffffffffffffffffff167fe1b1b06fc90496227fbac1fb1445a73dc0b50ffe20541bc439caf054e130f2dd60405160405180910390a250565b60005b600b60008373ffffffffffffffffffffffffffffffffffffffff1673ffffffffffffffffffffffffffffffffffffffff1681526020019081526020016000206001018054905081101561466357600b60008373ffffffffffffffffffffffffffffffffffffffff1673ffffffffffffffffffffffffffffffffffffffff16815260200190815260200160002060010181815481106144bf576144be615950565b5b906000526020600020015483141561465057600b60008373ffffffffffffffffffffffffffffffffffffffff1673ffffffffffffffffffffffffffffffffffffffff1681526020019081526020016000206001016001600b60008573ffffffffffffffffffffffffffffffffffffffff1673ffffffffffffffffffffffffffffffffffffffff168152602001908152602001600020600101805490506145659190615b89565b8154811061457657614575615950565b5b9060005260206000200154600b60008473ffffffffffffffffffffffffffffffffffffffff1673ffffffffffffffffffffffffffffffffffffffff16815260200190815260200160002060010182815481106145d5576145d4615950565b5b9060005260206000200181905550600b60008373ffffffffffffffffffffffffffffffffffffffff1673ffffffffffffffffffffffffffffffffffffffff16815260200190815260200160002060010180548061463557614634615bbd565b5b60019003818190600052602060002001600090559055614663565b808061465b90615a0f565b91505061441e565b505050565b60005b600c60008373ffffffffffffffffffffffffffffffffffffffff1673ffffffffffffffffffffffffffffffffffffffff168152602001908152602001600020600101805490508110156148b057600c60008373ffffffffffffffffffffffffffffffffffffffff1673ffffffffffffffffffffffffffffffffffffffff168152602001908152602001600020600101818154811061470c5761470b615950565b5b906000526020600020015483141561489d57600c60008373ffffffffffffffffffffffffffffffffffffffff1673ffffffffffffffffffffffffffffffffffffffff1681526020019081526020016000206001016001600c60008573ffffffffffffffffffffffffffffffffffffffff1673ffffffffffffffffffffffffffffffffffffffff168152602001908152602001600020600101805490506147b29190615b89565b815481106147c3576147c2615950565b5b9060005260206000200154600c60008473ffffffffffffffffffffffffffffffffffffffff1673ffffffffffffffffffffffffffffffffffffffff168152602001908152602001600020600101828154811061482257614821615950565b5b9060005260206000200181905550600c60008373ffffffffffffffffffffffffffffffffffffffff1673ffffffffffffffffffffffffffffffffffffffff16815260200190815260200160002060010180548061488257614881615bbd565b5b600190038181906000526020600020016000905590556148b0565b80806148a890615a0f565b91505061466b565b505050565b6148c9816005614c8e90919063ffffffff16565b8073ffffffffffffffffffffffffffffffffffffffff167f561138658ca49a8540dc70dcfe64c9026c1c5b9344642242dd6562970f9c127860405160405180910390a250565b614923816007614c8e90919063ffffffff16565b8073ffffffffffffffffffffffffffffffffffffffff167fddbf200aa634dc3fb81cfd68583dd1040d1c751d335e1d86b631bde3e977fea860405160405180910390a250565b61497d816003614be390919063ffffffff16565b8073ffffffffffffffffffffffffffffffffffffffff167f32be4a8d8826ffe9dc8a86625dc3a215b00e3d5820fcc2d92ff5487356f5cab060405160405180910390a250565b6149d7816007614be390919063ffffffff16565b8073ffffffffffffffffffffffffffffffffffffffff167f5ba057f6859f45b8bf9055bb78466867ffa8b7b7b3eac0e39c132390fa15630b60405160405180910390a250565b614a31816001614c8e90919063ffffffff16565b8073ffffffffffffffffffffffffffffffffffffffff167f71ae26cad02663e3d92efd6ec56031a80d74a20c0ab4183faa8bf262261c9baa60405160405180910390a250565b614a8b816005614be390919063ffffffff16565b8073ffffffffffffffffffffffffffffffffffffffff167fd5343fb03455ce242a0f2aa16059f1b1036283c9220e28e631c46f1d6c55f89560405160405180910390a250565b614ae5816005614d9490919063ffffffff16565b8073ffffffffffffffffffffffffffffffffffffffff167fb95900c899bdac269b9171170672563471748b1d67c0f84de39892ffe1bb74f560405160405180910390a250565b6000600d6000815480929190614b4090615a0f565b91905055506304ec38ed4233600d54604051602001614b6193929190615bec565b6040516020818303038152906040528051906020012060001c614b849190615c58565b905090565b614b9d816001614d9490919063ffffffff16565b8073ffffffffffffffffffffffffffffffffffffffff167fd624a9d6aede8c855ca1538132c456ef4117d142f2b2b6ab106d1c06356715fd60405160405180910390a250565b600073ffffffffffffffffffffffffffffffffffffffff168173ffffffffffffffffffffffffffffffffffffffff161415614c1d57600080fd5b614c2782826142d5565b614c3057600080fd5b60018260010160008373ffffffffffffffffffffffffffffffffffffffff1673ffffffffffffffffffffffffffffffffffffffff16815260200190815260200160002060006101000a81548160ff0219169083151502179055505050565b600073ffffffffffffffffffffffffffffffffffffffff168173ffffffffffffffffffffffffffffffffffffffff161415614cc857600080fd5b614cd282826142d5565b15614cdc57600080fd5b60018260000160008373ffffffffffffffffffffffffffffffffffffffff1673ffffffffffffffffffffffffffffffffffffffff16815260200190815260200160002060006101000a81548160ff02191690831515021790555060008260010160008373ffffffffffffffffffffffffffffffffffffffff1673ffffffffffffffffffffffffffffffffffffffff16815260200190815260200160002060006101000a81548160ff0219169083151502179055505050565b600073ffffffffffffffffffffffffffffffffffffffff168173ffffffffffffffffffffffffffffffffffffffff161415614dce57600080fd5b614dd882826142d5565b614de157600080fd5b60008260010160008373ffffffffffffffffffffffffffffffffffffffff1673ffffffffffffffffffffffffffffffffffffffff16815260200190815260200160002060006101000a81548160ff0219169083151502179055505050565b604051806101e0016040528060008152602001606081526020016060815260200160608152602001600073ffffffffffffffffffffffffffffffffffffffff168152602001600073ffffffffffffffffffffffffffffffffffffffff168152602001600073ffffffffffffffffffffffffffffffffffffffff168152602001600081526020016000151581526020016000151581526020016000151581526020016000815260200160008152602001600081526020016000600c811115614f0957614f08615201565b5b81525090565b828054614f1b906159ae565b90600052602060002090601f016020900481019282614f3d5760008555614f84565b82601f10614f5657805160ff1916838001178555614f84565b82800160010185558215614f84579182015b82811115614f83578251825591602001919060010190614f68565b5b509050614f919190614f95565b5090565b5b80821115614fae576000816000905550600101614f96565b5090565b6000604051905090565b600080fd5b600080fd5b6000819050919050565b614fd981614fc6565b8114614fe457600080fd5b50565b600081359050614ff681614fd0565b92915050565b6000806040838503121561501357615012614fbc565b5b600061502185828601614fe7565b925050602061503285828601614fe7565b9150509250929050565b600073ffffffffffffffffffffffffffffffffffffffff82169050919050565b60006150678261503c565b9050919050565b6150778161505c565b811461508257600080fd5b50565b6000813590506150948161506e565b92915050565b6000602082840312156150b0576150af614fbc565b5b60006150be84828501615085565b91505092915050565b60008115159050919050565b6150dc816150c7565b82525050565b60006020820190506150f760008301846150d3565b92915050565b600081519050919050565b600082825260208201905092915050565b6000819050602082019050919050565b61513281614fc6565b82525050565b600081519050919050565b600082825260208201905092915050565b60005b83811015615172578082015181840152602081019050615157565b83811115615181576000848401525b50505050565b6000601f19601f8301169050919050565b60006151a382615138565b6151ad8185615143565b93506151bd818560208601615154565b6151c681615187565b840191505092915050565b60006151dc8261503c565b9050919050565b6151ec816151d1565b82525050565b6151fb816150c7565b82525050565b7f4e487b7100000000000000000000000000000000000000000000000000000000600052602160045260246000fd5b600d811061524157615240615201565b5b50565b600081905061525282615230565b919050565b600061526282615244565b9050919050565b61527281615257565b82525050565b60006101e0830160008301516152916000860182615129565b50602083015184820360208601526152a98282615198565b915050604083015184820360408601526152c38282615198565b915050606083015184820360608601526152dd8282615198565b91505060808301516152f260808601826151e3565b5060a083015161530560a08601826151e3565b5060c083015161531860c08601826151e3565b5060e083015161532b60e0860182615129565b506101008301516153406101008601826151f2565b506101208301516153556101208601826151f2565b5061014083015161536a6101408601826151f2565b5061016083015161537f610160860182615129565b50610180830151615394610180860182615129565b506101a08301516153a96101a0860182615129565b506101c08301516153be6101c0860182615269565b508091505092915050565b60006153d58383615278565b905092915050565b6000602082019050919050565b60006153f5826150fd565b6153ff8185615108565b93508360208202850161541185615119565b8060005b8581101561544d578484038952815161542e85826153c9565b9450615439836153dd565b925060208a01995050600181019050615415565b50829750879550505050505092915050565b6000602082019050818103600083015261547981846153ea565b905092915050565b61548a816151d1565b811461549557600080fd5b50565b6000813590506154a781615481565b92915050565b600080604083850312156154c4576154c3614fbc565b5b60006154d285828601614fe7565b92505060206154e385828601615498565b9150509250929050565b60006020828403121561550357615502614fbc565b5b600061551184828501614fe7565b91505092915050565b60006101e0830160008301516155336000860182615129565b506020830151848203602086015261554b8282615198565b915050604083015184820360408601526155658282615198565b9150506060830151848203606086015261557f8282615198565b915050608083015161559460808601826151e3565b5060a08301516155a760a08601826151e3565b5060c08301516155ba60c08601826151e3565b5060e08301516155cd60e0860182615129565b506101008301516155e26101008601826151f2565b506101208301516155f76101208601826151f2565b5061014083015161560c6101408601826151f2565b50610160830151615621610160860182615129565b50610180830151615636610180860182615129565b506101a083015161564b6101a0860182615129565b506101c08301516156606101c0860182615269565b508091505092915050565b60006020820190508181036000830152615685818461551a565b905092915050565b600080604083850312156156a4576156a3614fbc565b5b60006156b285828601614fe7565b92505060206156c385828601615085565b9150509250929050565b6156d681614fc6565b82525050565b60006020820190506156f160008301846156cd565b92915050565b600080fd5b600080fd5b7f4e487b7100000000000000000000000000000000000000000000000000000000600052604160045260246000fd5b61573982615187565b810181811067ffffffffffffffff8211171561575857615757615701565b5b80604052505050565b600061576b614fb2565b90506157778282615730565b919050565b600067ffffffffffffffff82111561579757615796615701565b5b6157a082615187565b9050602081019050919050565b82818337600083830152505050565b60006157cf6157ca8461577c565b615761565b9050828152602081018484840111156157eb576157ea6156fc565b5b6157f68482856157ad565b509392505050565b600082601f830112615813576158126156f7565b5b81356158238482602086016157bc565b91505092915050565b615835816150c7565b811461584057600080fd5b50565b6000813590506158528161582c565b92915050565b600080600080600060a0868803121561587457615873614fbc565b5b600086013567ffffffffffffffff81111561589257615891614fc1565b5b61589e888289016157fe565b955050602086013567ffffffffffffffff8111156158bf576158be614fc1565b5b6158cb888289016157fe565b945050604086013567ffffffffffffffff8111156158ec576158eb614fc1565b5b6158f8888289016157fe565b935050606061590988828901615843565b925050608061591a88828901614fe7565b9150509295509295909350565b600060408201905061593c60008301856156cd565b61594960208301846156cd565b9392505050565b7f4e487b7100000000000000000000000000000000000000000000000000000000600052603260045260246000fd5b7f4e487b7100000000000000000000000000000000000000000000000000000000600052602260045260246000fd5b600060028204905060018216806159c657607f821691505b602082108114156159da576159d961597f565b5b50919050565b7f4e487b7100000000000000000000000000000000000000000000000000000000600052601160045260246000fd5b6000615a1a82614fc6565b91507fffffffffffffffffffffffffffffffffffffffffffffffffffffffffffffffff821415615a4d57615a4c6159e0565b5b600182019050919050565b6000615a6382614fc6565b91506000821415615a7757615a766159e0565b5b600182039050919050565b6000819050919050565b615a9d615a9882614fc6565b615a82565b82525050565b60008160601b9050919050565b6000615abb82615aa3565b9050919050565b6000615acd82615ab0565b9050919050565b615ae5615ae0826151d1565b615ac2565b82525050565b6000615af682615ab0565b9050919050565b615b0e615b098261505c565b615aeb565b82525050565b6000615b208286615a8c565b602082019150615b308285615ad4565b601482019150615b408284615afd565b601482019150819050949350505050565b615b5a8161505c565b82525050565b6000604082019050615b7560008301856156cd565b615b826020830184615b51565b9392505050565b6000615b9482614fc6565b9150615b9f83614fc6565b925082821015615bb257615bb16159e0565b5b828203905092915050565b7f4e487b7100000000000000000000000000000000000000000000000000000000600052603160045260246000fd5b6000615bf88286615a8c565b602082019150615c088285615afd565b601482019150615c188284615a8c565b602082019150819050949350505050565b7f4e487b7100000000000000000000000000000000000000000000000000000000600052601260045260246000fd5b6000615c6382614fc6565b9150615c6e83614fc6565b925082615c7e57615c7d615c29565b5b82820690509291505056fea2646970667358221220b4f829432a311b6a0f7fc24fec95fa056d0212c8263e1818b0c8ea03da21b39864736f6c634300080b0033",
  "immutableReferences": {},
  "source": "// // SPDX-License-Identifier: UNLICENSED\r\n\r\npragma solidity >=0.4.24;\r\n\r\n//contracts\r\nimport \"./Consumer.sol\";\r\nimport \"./Distributor.sol\";\r\nimport \"./Manufacturer.sol\";\r\nimport \"./Retailer.sol\";\r\n\r\ncontract SupplyChain is Retailer, Consumer, Manufacturer, Distributor {\r\n    uint256[] composite;\r\n    mapping(uint256 => Item) items;\r\n    mapping(address => totalItems) ownership;\r\n    mapping(address => totalItems) shipped;\r\n\r\n    uint256 randNonce = 0;\r\n\r\n    function randMod() internal returns (uint256) {\r\n        randNonce++;\r\n        return\r\n            uint256(\r\n                keccak256(\r\n                    abi.encodePacked(block.timestamp, msg.sender, randNonce)\r\n                )\r\n            ) % 82589933;\r\n    }\r\n\r\n    function deleteItem(uint256 _uin, address x) internal {\r\n        for (uint256 i = 0; i < ownership[x].itemUin.length; i++) {\r\n            if (_uin == ownership[x].itemUin[i]) {\r\n                ownership[x].itemUin[i] = ownership[x].itemUin[\r\n                    ownership[x].itemUin.length - 1\r\n                ];\r\n                ownership[x].itemUin.pop();\r\n                break;\r\n            }\r\n        }\r\n    }\r\n\r\n    function deleteItemshipped(uint256 _uin, address x) internal {\r\n        for (uint256 i = 0; i < shipped[x].itemUin.length; i++) {\r\n            if (_uin == shipped[x].itemUin[i]) {\r\n                shipped[x].itemUin[i] = shipped[x].itemUin[\r\n                    shipped[x].itemUin.length - 1\r\n                ];\r\n                shipped[x].itemUin.pop();\r\n                break;\r\n            }\r\n        }\r\n    }\r\n\r\n    enum State {\r\n        SProducedByManufacturer,\r\n        SForSaleByManufacturer,\r\n        SShippedByManufacturer,\r\n        SReceivedByDistributor,\r\n        SForSaleByDistributor,\r\n        SShippedByDistributor,\r\n        SReceivedByRetailer,\r\n        SForSaleByRetailer,\r\n        SShippedByRetailer,\r\n        SReceivedByCustomer,\r\n        SCollectibleForSaleByCustomer,\r\n        SShippedByCustomer,\r\n        SReceivedCollectibleByCustomer\r\n    }\r\n\r\n    State constant defaultState = State.SProducedByManufacturer;\r\n    struct totalItems {\r\n        uint256 count;\r\n        uint256[] itemUin;\r\n    }\r\n    struct Item {\r\n        uint256 uin;\r\n        string productName;\r\n        string productType;\r\n        string productDescription;\r\n        address payable manufacturerId;\r\n        address payable CurrentOwner;\r\n        address payable ShipTo;\r\n        uint256 productDate;\r\n        bool collectible;\r\n        bool composite;\r\n        bool visibility;\r\n        uint256 weight;\r\n        uint256 productPrice;\r\n        uint256 productHash;\r\n        State productState;\r\n    }\r\n    event EProducedByManufacturer(\r\n        uint256 indexed uin,\r\n        uint256 timeStamp,\r\n        address indexed caller\r\n    );\r\n    event EForSaleByManufacturer(\r\n        uint256 indexed uin,\r\n        uint256 timeStamp,\r\n        address indexed caller,\r\n        uint256 price\r\n    );\r\n    event EShippedByManufacturer(\r\n        uint256 indexed uin,\r\n        uint256 timeStamp,\r\n        address indexed caller,\r\n        address indexed receiver\r\n    );\r\n    event EReceivedByDistributor(\r\n        uint256 indexed uin,\r\n        uint256 timeStamp,\r\n        address indexed caller\r\n    );\r\n    event EForSaleByDistributor(\r\n        uint256 indexed uin,\r\n        uint256 timeStamp,\r\n        address indexed caller,\r\n        uint256 price\r\n    );\r\n    event EShippedByDistributor(\r\n        uint256 indexed uin,\r\n        uint256 timeStamp,\r\n        address indexed caller,\r\n        address indexed receiver\r\n    );\r\n    event EReceivedByRetailer(\r\n        uint256 indexed uin,\r\n        uint256 timeStamp,\r\n        address caller\r\n    );\r\n\r\n    event EForSaleByRetailer(\r\n        uint256 indexed uin,\r\n        uint256 timeStamp,\r\n        address indexed caller,\r\n        uint256 price\r\n    );\r\n\r\n    event EShippedByRetailer(\r\n        uint256 indexed uin,\r\n        uint256 timeStamp,\r\n        address indexed caller,\r\n        address indexed receiver\r\n    );\r\n\r\n    event EReceivedByCustomer(\r\n        uint256 indexed uin,\r\n        uint256 timeStamp,\r\n        address caller\r\n    );\r\n\r\n    event ECollectibleForSaleByCustomer(\r\n        uint256 indexed uin,\r\n        uint256 timeStamp,\r\n        address indexed caller,\r\n        uint256 price\r\n    );\r\n\r\n    event EShippedtheCollectibleByCustomer(\r\n        uint256 indexed uin,\r\n        uint256 timeStamp,\r\n        address indexed caller,\r\n        address indexed receiver\r\n    );\r\n\r\n    event EReceivedCollectibleByCustomer(\r\n        uint256 indexed uin,\r\n        uint256 timeStamp,\r\n        address caller\r\n    );\r\n\r\n    modifier paidEnough(uint256 _price) {\r\n        require(msg.value >= _price);\r\n        _;\r\n    }\r\n\r\n    modifier MProducedByManufacturer(uint256 _uin) {\r\n        require(items[_uin].productState == State.SProducedByManufacturer);\r\n        _;\r\n    }\r\n\r\n    modifier MForSaleByManufacturer(uint256 _uin) {\r\n        require(items[_uin].productState == State.SForSaleByManufacturer);\r\n        _;\r\n    }\r\n\r\n    modifier MReceivedByDistributor(uint256 _uin) {\r\n        require(items[_uin].productState == State.SReceivedByDistributor);\r\n        _;\r\n    }\r\n\r\n    modifier MShippedByManufacturer(uint256 _uin) {\r\n        require(items[_uin].productState == State.SShippedByManufacturer);\r\n        _;\r\n    }\r\n\r\n    modifier MForSaleByDistributor(uint256 _uin) {\r\n        require(items[_uin].productState == State.SForSaleByDistributor);\r\n        _;\r\n    }\r\n\r\n    modifier MShippedByDistributor(uint256 _uin) {\r\n        require(items[_uin].productState == State.SShippedByDistributor);\r\n        _;\r\n    }\r\n\r\n    modifier MReceivedByRetailer(uint256 _uin) {\r\n        require(items[_uin].productState == State.SReceivedByRetailer);\r\n        _;\r\n    }\r\n\r\n    modifier MForSaleByRetailer(uint256 _uin) {\r\n        require(items[_uin].productState == State.SForSaleByRetailer);\r\n        _;\r\n    }\r\n\r\n    modifier MShippedByRetailer(uint256 _uin) {\r\n        require(items[_uin].productState == State.SShippedByRetailer);\r\n        _;\r\n    }\r\n\r\n    modifier MReceivedByCustomer(uint256 _uin) {\r\n        require(items[_uin].productState == State.SReceivedByCustomer);\r\n        _;\r\n    }\r\n\r\n    modifier isCurrentOwner(uint256 _uin) {\r\n        require(msg.sender == items[_uin].CurrentOwner);\r\n        _;\r\n    }\r\n\r\n    modifier MCollectibleForSaleByCustomer(uint256 _uin) {\r\n        require(\r\n            items[_uin].productState == State.SCollectibleForSaleByCustomer\r\n        );\r\n        _;\r\n    }\r\n\r\n    modifier MShippedCollectibleByCustomer(uint256 _uin) {\r\n        require(items[_uin].productState == State.SShippedByCustomer);\r\n        _;\r\n    }\r\n\r\n    modifier MReceivedCollectibleByCustomer(uint256 _uin) {\r\n        require(\r\n            items[_uin].productState == State.SReceivedCollectibleByCustomer\r\n        );\r\n        _;\r\n    }\r\n\r\n    modifier MisCollectible(uint256 _uin) {\r\n        require(items[_uin].collectible == true);\r\n        _;\r\n    }\r\n\r\n    modifier MVerifyCaller(uint256 _uin) {\r\n        require(items[_uin].productHash == generateHash(_uin, msg.sender));\r\n        _;\r\n    }\r\n\r\n    function generateHash(uint256 uin, address shipTo)\r\n        public\r\n        returns (uint256)\r\n    {\r\n        return\r\n            uint256(\r\n                keccak256(\r\n                    abi.encodePacked(uin, items[uin].CurrentOwner, shipTo)\r\n                )\r\n            );\r\n    }\r\n\r\n    function producebymanufacturer(\r\n        string memory _ProductName,\r\n        string memory _ProductDesc,\r\n        string memory _ProductType,\r\n        bool _collectible,\r\n        uint256 weight\r\n    ) public onlyManufacturer(msg.sender) returns (uint256) {\r\n        uint256 uin = randMod();\r\n        address payable manufacturer = payable(msg.sender);\r\n        items[uin] = Item(\r\n            uin,\r\n            _ProductName,\r\n            _ProductType,\r\n            _ProductDesc,\r\n            manufacturer,\r\n            manufacturer,\r\n            payable(address(0)),\r\n            block.timestamp,\r\n            _collectible,\r\n            false,\r\n            false,\r\n            weight,\r\n            0,\r\n            0,\r\n            defaultState\r\n        );\r\n        ownership[manufacturer].count++;\r\n        ownership[manufacturer].itemUin.push(uin);\r\n        emit EProducedByManufacturer(uin, block.timestamp, msg.sender);\r\n        return (uin);\r\n    }\r\n\r\n    function forsalebymanufacturer(uint256 uin, uint256 price)\r\n        public\r\n        onlyManufacturer(msg.sender)\r\n        isCurrentOwner(uin)\r\n        MProducedByManufacturer(uin)\r\n    {\r\n        items[uin].visibility = true;\r\n        items[uin].productState = State.SForSaleByManufacturer;\r\n        items[uin].productPrice = price;\r\n        emit EForSaleByManufacturer(uin, block.timestamp, msg.sender, price);\r\n    }\r\n\r\n    function shippedbymanufacturer(uint256 uin, address payable shipTo)\r\n        public\r\n        onlyManufacturer(msg.sender)\r\n        isCurrentOwner(uin)\r\n        onlyDistributor(shipTo)\r\n        MForSaleByManufacturer(uin)\r\n    {\r\n        items[uin].productState = State.SShippedByManufacturer;\r\n        items[uin].ShipTo = shipTo;\r\n        shipped[shipTo].count++;\r\n        shipped[shipTo].itemUin.push(uin);\r\n        items[uin].productHash = generateHash(uin, shipTo);\r\n        emit EShippedByManufacturer(uin, block.timestamp, msg.sender, shipTo);\r\n    }\r\n\r\n    function receivedbydistributor(uint256 uin)\r\n        public\r\n        payable\r\n        onlyDistributor(msg.sender)\r\n        paidEnough(items[uin].productPrice)\r\n        MShippedByManufacturer(uin)\r\n        MVerifyCaller(uin)\r\n    //checkValue(items[uin].productPrice, payable(msg.sender))\r\n    {\r\n        items[uin].productState = State.SReceivedByDistributor;\r\n        items[uin].visibility = false;\r\n        items[uin].CurrentOwner.transfer(items[uin].productPrice);\r\n        deleteItem(uin, items[uin].CurrentOwner);\r\n        ownership[items[uin].CurrentOwner].count--;\r\n        items[uin].CurrentOwner = payable(msg.sender);\r\n        shipped[items[uin].CurrentOwner].count--;\r\n        deleteItemshipped(uin, items[uin].CurrentOwner);\r\n        items[uin].productPrice = 0;\r\n        ownership[msg.sender].count++;\r\n        ownership[msg.sender].itemUin.push(uin);\r\n        emit EReceivedByDistributor(uin, block.timestamp, msg.sender);\r\n    }\r\n\r\n    function forsalebydistributor(uint256 uin, uint256 price)\r\n        public\r\n        onlyDistributor(msg.sender)\r\n        isCurrentOwner(uin)\r\n        MReceivedByDistributor(uin)\r\n    {\r\n        items[uin].visibility = true;\r\n        items[uin].productState = State.SForSaleByDistributor;\r\n        items[uin].productPrice = price;\r\n        emit EForSaleByDistributor(uin, block.timestamp, msg.sender, price);\r\n    }\r\n\r\n    function shippedbydistributor(uint256 uin, address payable shipTo)\r\n        public\r\n        onlyDistributor(msg.sender)\r\n        isCurrentOwner(uin)\r\n        onlyRetailer(shipTo)\r\n        MForSaleByDistributor(uin)\r\n    {\r\n        items[uin].productState = State.SShippedByDistributor;\r\n        items[uin].ShipTo = shipTo;\r\n        shipped[shipTo].count++;\r\n        shipped[shipTo].itemUin.push(uin);\r\n        items[uin].productHash = generateHash(uin, shipTo);\r\n        emit EShippedByDistributor(uin, block.timestamp, msg.sender, shipTo);\r\n    }\r\n\r\n    function receivedbyretailer(uint256 uin)\r\n        public\r\n        payable\r\n        onlyRetailer(msg.sender)\r\n        paidEnough(items[uin].productPrice)\r\n        MShippedByDistributor(uin)\r\n        MVerifyCaller(uin)\r\n    {\r\n        items[uin].productState = State.SReceivedByRetailer;\r\n        items[uin].visibility = false;\r\n        items[uin].CurrentOwner.transfer(items[uin].productPrice);\r\n        ownership[items[uin].CurrentOwner].count--;\r\n        deleteItem(uin, items[uin].CurrentOwner);\r\n        items[uin].CurrentOwner = payable(msg.sender);\r\n        shipped[items[uin].CurrentOwner].count--;\r\n        deleteItemshipped(uin, items[uin].CurrentOwner);\r\n        items[uin].productPrice = 0;\r\n        ownership[msg.sender].count++;\r\n        ownership[msg.sender].itemUin.push(uin);\r\n        emit EReceivedByRetailer(uin, block.timestamp, msg.sender);\r\n    }\r\n\r\n    function forsalebyretailer(uint256 uin, uint256 price)\r\n        public\r\n        onlyRetailer(msg.sender)\r\n        isCurrentOwner(uin)\r\n        MReceivedByRetailer(uin)\r\n    {\r\n        items[uin].productState = State.SForSaleByRetailer;\r\n        items[uin].productPrice = price;\r\n        emit EForSaleByRetailer(uin, block.timestamp, msg.sender, price);\r\n    }\r\n\r\n    function shippedbyretailer(uint256 uin, address payable shipTo)\r\n        public\r\n        onlyRetailer(msg.sender)\r\n        isCurrentOwner(uin)\r\n        onlyConsumer(shipTo)\r\n        MForSaleByRetailer(uin)\r\n    {\r\n        items[uin].productState = State.SShippedByRetailer;\r\n        items[uin].ShipTo = shipTo;\r\n        shipped[shipTo].count++;\r\n        shipped[shipTo].itemUin.push(uin);\r\n        items[uin].productHash = generateHash(uin, shipTo);\r\n        emit EShippedByRetailer(uin, block.timestamp, msg.sender, shipTo);\r\n    }\r\n\r\n    function receivedbycustomer(uint256 uin)\r\n        public\r\n        payable\r\n        onlyConsumer(payable(msg.sender))\r\n        paidEnough(items[uin].productPrice)\r\n        MShippedByRetailer(uin)\r\n        MVerifyCaller(uin)\r\n    {\r\n        items[uin].productState = State.SReceivedByCustomer;\r\n        items[uin].visibility = false;\r\n        items[uin].CurrentOwner.transfer(items[uin].productPrice);\r\n        ownership[items[uin].CurrentOwner].count--;\r\n        deleteItem(uin, items[uin].CurrentOwner);\r\n        items[uin].CurrentOwner = payable(msg.sender);\r\n        shipped[items[uin].CurrentOwner].count--;\r\n        deleteItemshipped(uin, items[uin].CurrentOwner);\r\n        items[uin].productPrice = 0;\r\n        ownership[msg.sender].count++;\r\n        ownership[msg.sender].itemUin.push(uin);\r\n        emit EReceivedByCustomer(uin, block.timestamp, msg.sender);\r\n    }\r\n\r\n    function collectibleforsalebycustomer(uint256 uin, uint256 price)\r\n        public\r\n        isCurrentOwner(uin)\r\n        onlyConsumer(payable(msg.sender))\r\n        MReceivedByCustomer(uin)\r\n        MisCollectible(uin)\r\n    {\r\n        items[uin].productState = State.SCollectibleForSaleByCustomer;\r\n        items[uin].productPrice = price;\r\n        items[uin].visibility = true;\r\n        emit ECollectibleForSaleByCustomer(\r\n            uin,\r\n            block.timestamp,\r\n            msg.sender,\r\n            price\r\n        );\r\n    }\r\n\r\n    function shippedcollectiblebycustomer(uint256 uin, address payable ShipTo)\r\n        public\r\n        isCurrentOwner(uin)\r\n        onlyConsumer(payable(msg.sender))\r\n        onlyConsumer(ShipTo)\r\n        MCollectibleForSaleByCustomer(uin)\r\n    {\r\n        items[uin].productState = State.SShippedByCustomer;\r\n        items[uin].ShipTo = ShipTo;\r\n        shipped[ShipTo].count++;\r\n        shipped[ShipTo].itemUin.push(uin);\r\n        items[uin].productHash = generateHash(uin, ShipTo);\r\n        emit EShippedtheCollectibleByCustomer(\r\n            uin,\r\n            block.timestamp,\r\n            msg.sender,\r\n            ShipTo\r\n        );\r\n    }\r\n\r\n    function receivedcollectiblebycustomer(uint256 uin)\r\n        public\r\n        payable\r\n        onlyConsumer(payable(msg.sender))\r\n        MisCollectible(uin)\r\n        paidEnough(items[uin].productPrice)\r\n        MShippedCollectibleByCustomer(uin)\r\n        MVerifyCaller(uin)\r\n    {\r\n        items[uin].productState = State.SReceivedByCustomer;\r\n        items[uin].visibility = false;\r\n        items[uin].CurrentOwner.transfer(items[uin].productPrice);\r\n        ownership[items[uin].CurrentOwner].count--;\r\n        deleteItem(uin, items[uin].CurrentOwner);\r\n        items[uin].CurrentOwner = payable(msg.sender);\r\n        shipped[items[uin].CurrentOwner].count--;\r\n        deleteItemshipped(uin, items[uin].CurrentOwner);\r\n        items[uin].productPrice = 0;\r\n        ownership[msg.sender].count++;\r\n        ownership[msg.sender].itemUin.push(uin);\r\n        emit EReceivedCollectibleByCustomer(uin, block.timestamp, msg.sender);\r\n    }\r\n\r\n    function productDetail(uint256 uin) public view returns (Item memory) {\r\n        return (items[uin]);\r\n    }\r\n\r\n    function getOwnedProducts(address z) public view returns (Item[] memory) {\r\n        Item[] memory item = new Item[](ownership[z].itemUin.length);\r\n        for (uint256 i = 0; i < ownership[z].itemUin.length; i++) {\r\n            Item storage x = items[ownership[z].itemUin[i]];\r\n            item[i] = x;\r\n        }\r\n        return item;\r\n    }\r\n\r\n    function getShippedProducts(address z) public view returns (Item[] memory) {\r\n        Item[] memory item = new Item[](shipped[z].itemUin.length);\r\n        for (uint256 i = 0; i < shipped[z].itemUin.length; i++) {\r\n            Item storage x = items[shipped[z].itemUin[i]];\r\n            item[i] = x;\r\n        }\r\n        return item;\r\n    }\r\n}\r\n",
  "sourcePath": "C:\\Users\\Dell\\Desktop\\Contracts\\Ghrushnesh\\logistics-Blockchain-Project\\truffle\\contracts\\SupplyChain.sol",
  "compiler": {
    "name": "solc",
    "version": "0.8.11+commit.d7f03943.Emscripten.clang"
  },
  "schemaVersion": "3.4.5",
  "updatedAt": "2022-04-28T06:06:23.439Z",
  "networkType": "ethereum",
  "devdoc": {
    "kind": "dev",
    "methods": {},
    "version": 1
  },
  "userdoc": {
    "kind": "user",
    "methods": {},
    "version": 1
  }
}